{
  "_format": "hh-sol-artifact-1",
  "contractName": "Crowdfunding",
  "sourceName": "contracts/Crowdfunding.sol",
  "abi": [
    {
      "inputs": [
        {
          "internalType": "uint256",
          "name": "_goal",
          "type": "uint256"
        },
        {
          "internalType": "address",
          "name": "_fundingGoalReceiver",
          "type": "address"
        },
        {
          "internalType": "address",
          "name": "_TokenContractAddress",
          "type": "address"
        }
      ],
      "stateMutability": "nonpayable",
      "type": "constructor"
    },
    {
      "inputs": [],
      "name": "NOT_BACKER",
      "type": "error"
    },
    {
      "inputs": [],
      "name": "NOT_VALID_AMOUNT",
      "type": "error"
    },
    {
      "anonymous": false,
      "inputs": [
        {
          "indexed": false,
          "internalType": "address",
          "name": "backer",
          "type": "address"
        },
        {
          "indexed": false,
          "internalType": "uint256",
          "name": "amount",
          "type": "uint256"
        }
      ],
      "name": "Funded",
      "type": "event"
    },
    {
      "anonymous": false,
      "inputs": [
        {
          "indexed": false,
          "internalType": "uint256",
          "name": "finalAmount",
          "type": "uint256"
        }
      ],
      "name": "GoalAchieved",
      "type": "event"
    },
    {
      "anonymous": false,
      "inputs": [
        {
          "indexed": false,
          "internalType": "address",
          "name": "backer",
          "type": "address"
        },
        {
          "indexed": false,
          "internalType": "uint256",
          "name": "amount",
          "type": "uint256"
        }
      ],
      "name": "Refund",
      "type": "event"
    },
    {
      "inputs": [
        {
          "internalType": "uint256",
          "name": "_amount",
          "type": "uint256"
        }
      ],
      "name": "contribute",
      "outputs": [],
      "stateMutability": "payable",
      "type": "function"
    },
    {
      "inputs": [],
      "name": "fundingGoalReceiver",
      "outputs": [
        {
          "internalType": "address",
          "name": "",
          "type": "address"
        }
      ],
      "stateMutability": "view",
      "type": "function"
    },
    {
      "inputs": [],
      "name": "refund",
      "outputs": [],
      "stateMutability": "nonpayable",
      "type": "function"
    }
  ],
  "bytecode": "0x60a060405234801561001057600080fd5b50604051610b69380380610b69833981810160405281019061003291906101ca565b600083141561006d576040517f248d636f00000000000000000000000000000000000000000000000000000000815260040160405180910390fd5b336000806101000a81548173ffffffffffffffffffffffffffffffffffffffff021916908373ffffffffffffffffffffffffffffffffffffffff1602179055508260028190555081600460006101000a81548173ffffffffffffffffffffffffffffffffffffffff021916908373ffffffffffffffffffffffffffffffffffffffff1602179055508073ffffffffffffffffffffffffffffffffffffffff1660808173ffffffffffffffffffffffffffffffffffffffff168152505050505061021d565b600080fd5b6000819050919050565b61014981610136565b811461015457600080fd5b50565b60008151905061016681610140565b92915050565b600073ffffffffffffffffffffffffffffffffffffffff82169050919050565b60006101978261016c565b9050919050565b6101a78161018c565b81146101b257600080fd5b50565b6000815190506101c48161019e565b92915050565b6000806000606084860312156101e3576101e2610131565b5b60006101f186828701610157565b9350506020610202868287016101b5565b9250506040610213868287016101b5565b9150509250925092565b608051610923610246600039600081816102230152818161035601526104c601526109236000f3fe6080604052600436106100345760003560e01c80632d7ba9e414610039578063590e1ae314610064578063c1cbbca71461007b575b600080fd5b34801561004557600080fd5b5061004e610097565b60405161005b919061061f565b60405180910390f35b34801561007057600080fd5b506100796100bd565b005b61009560048036038101906100909190610675565b610317565b005b600460009054906101000a900473ffffffffffffffffffffffffffffffffffffffff1681565b6000600360003373ffffffffffffffffffffffffffffffffffffffff1673ffffffffffffffffffffffffffffffffffffffff168152602001908152602001600020541415610137576040517f907caf7d00000000000000000000000000000000000000000000000000000000815260040160405180910390fd5b6002546001541061017d576040517f08c379a000000000000000000000000000000000000000000000000000000000815260040161017490610725565b60405180910390fd5b6000600360003373ffffffffffffffffffffffffffffffffffffffff1673ffffffffffffffffffffffffffffffffffffffff1681526020019081526020016000205490506000600360003373ffffffffffffffffffffffffffffffffffffffff1673ffffffffffffffffffffffffffffffffffffffff1681526020019081526020016000208190555080600160008282546102189190610774565b9250508190555060007f000000000000000000000000000000000000000000000000000000000000000073ffffffffffffffffffffffffffffffffffffffff1663a9059cbb33846040518363ffffffff1660e01b815260040161027c9291906107b7565b602060405180830381600087803b15801561029657600080fd5b505af11580156102aa573d6000803e3d6000fd5b505050506040513d601f19601f820116820180604052508101906102ce9190610818565b9050806102da57600080fd5b7fbb28353e4598c3b9199101a66e0989549b659a59a54d2c27fbb183f1932c8e6d338360405161030b9291906107b7565b60405180910390a15050565b6000811415610352576040517f248d636f00000000000000000000000000000000000000000000000000000000815260040160405180910390fd5b60007f000000000000000000000000000000000000000000000000000000000000000073ffffffffffffffffffffffffffffffffffffffff166323b872dd3330856040518463ffffffff1660e01b81526004016103b193929190610845565b602060405180830381600087803b1580156103cb57600080fd5b505af11580156103df573d6000803e3d6000fd5b505050506040513d601f19601f820116820180604052508101906104039190610818565b90508061040f57600080fd5b8160016000828254610421919061087c565b9250508190555081600360003373ffffffffffffffffffffffffffffffffffffffff1673ffffffffffffffffffffffffffffffffffffffff1681526020019081526020016000206000828254610477919061087c565b925050819055507f5af8184bef8e4b45eb9f6ed7734d04da38ced226495548f46e0c8ff8d7d9a52433836040516104af9291906107b7565b60405180910390a1600254600154106105da5760007f000000000000000000000000000000000000000000000000000000000000000073ffffffffffffffffffffffffffffffffffffffff1663a9059cbb60008054906101000a900473ffffffffffffffffffffffffffffffffffffffff166001546040518363ffffffff1660e01b81526004016105419291906107b7565b602060405180830381600087803b15801561055b57600080fd5b505af115801561056f573d6000803e3d6000fd5b505050506040513d601f19601f820116820180604052508101906105939190610818565b90508061059f57600080fd5b7f0c48c7e12c6f14138cb0cde8a957f4fc48db27f6247fac5e3edf9e008ca26eae6001546040516105d091906108d2565b60405180910390a1505b5050565b600073ffffffffffffffffffffffffffffffffffffffff82169050919050565b6000610609826105de565b9050919050565b610619816105fe565b82525050565b60006020820190506106346000830184610610565b92915050565b600080fd5b6000819050919050565b6106528161063f565b811461065d57600080fd5b50565b60008135905061066f81610649565b92915050565b60006020828403121561068b5761068a61063a565b5b600061069984828501610660565b91505092915050565b600082825260208201905092915050565b7f46756e64696e6720676f616c20686173206265656e206d65742c206e6f20726560008201527f66756e647320617661696c61626c650000000000000000000000000000000000602082015250565b600061070f602f836106a2565b915061071a826106b3565b604082019050919050565b6000602082019050818103600083015261073e81610702565b9050919050565b7f4e487b7100000000000000000000000000000000000000000000000000000000600052601160045260246000fd5b600061077f8261063f565b915061078a8361063f565b92508282101561079d5761079c610745565b5b828203905092915050565b6107b18161063f565b82525050565b60006040820190506107cc6000830185610610565b6107d960208301846107a8565b9392505050565b60008115159050919050565b6107f5816107e0565b811461080057600080fd5b50565b600081519050610812816107ec565b92915050565b60006020828403121561082e5761082d61063a565b5b600061083c84828501610803565b91505092915050565b600060608201905061085a6000830186610610565b6108676020830185610610565b61087460408301846107a8565b949350505050565b60006108878261063f565b91506108928361063f565b9250827fffffffffffffffffffffffffffffffffffffffffffffffffffffffffffffffff038211156108c7576108c6610745565b5b828201905092915050565b60006020820190506108e760008301846107a8565b9291505056fea264697066735822122003ae46f1a1fc3f32b0fac1eae793da3cd7e72ef5e34837ed821161d177ec4eb864736f6c63430008090033",
  "linkReferences": {},
  "deployedLinkReferences": {}
}