{
  "_format": "hh-sol-artifact-1",
  "contractName": "RToken",
  "sourceName": "contracts/RToken.sol",
  "abi": [
    {
      "inputs": [],
      "stateMutability": "nonpayable",
      "type": "constructor"
    },
    {
      "anonymous": false,
      "inputs": [
        {
          "indexed": true,
          "internalType": "address",
          "name": "owner",
          "type": "address"
        },
        {
          "indexed": true,
          "internalType": "address",
          "name": "spender",
          "type": "address"
        },
        {
          "indexed": false,
          "internalType": "uint256",
          "name": "value",
          "type": "uint256"
        }
      ],
      "name": "Approval",
      "type": "event"
    },
    {
      "anonymous": false,
      "inputs": [
        {
          "indexed": true,
          "internalType": "address",
          "name": "from",
          "type": "address"
        },
        {
          "indexed": true,
          "internalType": "address",
          "name": "to",
          "type": "address"
        },
        {
          "indexed": false,
          "internalType": "uint256",
          "name": "value",
          "type": "uint256"
        }
      ],
      "name": "Transfer",
      "type": "event"
    },
    {
      "inputs": [],
      "name": "DOMAIN_SEPARATOR",
      "outputs": [
        {
          "internalType": "bytes32",
          "name": "",
          "type": "bytes32"
        }
      ],
      "stateMutability": "view",
      "type": "function"
    },
    {
      "inputs": [
        {
          "internalType": "address",
          "name": "owner",
          "type": "address"
        },
        {
          "internalType": "address",
          "name": "spender",
          "type": "address"
        }
      ],
      "name": "allowance",
      "outputs": [
        {
          "internalType": "uint256",
          "name": "",
          "type": "uint256"
        }
      ],
      "stateMutability": "view",
      "type": "function"
    },
    {
      "inputs": [
        {
          "internalType": "address",
          "name": "spender",
          "type": "address"
        },
        {
          "internalType": "uint256",
          "name": "amount",
          "type": "uint256"
        }
      ],
      "name": "approve",
      "outputs": [
        {
          "internalType": "bool",
          "name": "",
          "type": "bool"
        }
      ],
      "stateMutability": "nonpayable",
      "type": "function"
    },
    {
      "inputs": [
        {
          "internalType": "address",
          "name": "account",
          "type": "address"
        }
      ],
      "name": "balanceOf",
      "outputs": [
        {
          "internalType": "uint256",
          "name": "",
          "type": "uint256"
        }
      ],
      "stateMutability": "view",
      "type": "function"
    },
    {
      "inputs": [],
      "name": "decimals",
      "outputs": [
        {
          "internalType": "uint8",
          "name": "",
          "type": "uint8"
        }
      ],
      "stateMutability": "view",
      "type": "function"
    },
    {
      "inputs": [
        {
          "internalType": "address",
          "name": "spender",
          "type": "address"
        },
        {
          "internalType": "uint256",
          "name": "subtractedValue",
          "type": "uint256"
        }
      ],
      "name": "decreaseAllowance",
      "outputs": [
        {
          "internalType": "bool",
          "name": "",
          "type": "bool"
        }
      ],
      "stateMutability": "nonpayable",
      "type": "function"
    },
    {
      "inputs": [
        {
          "internalType": "address",
          "name": "spender",
          "type": "address"
        },
        {
          "internalType": "uint256",
          "name": "addedValue",
          "type": "uint256"
        }
      ],
      "name": "increaseAllowance",
      "outputs": [
        {
          "internalType": "bool",
          "name": "",
          "type": "bool"
        }
      ],
      "stateMutability": "nonpayable",
      "type": "function"
    },
    {
      "inputs": [],
      "name": "mint",
      "outputs": [],
      "stateMutability": "nonpayable",
      "type": "function"
    },
    {
      "inputs": [],
      "name": "name",
      "outputs": [
        {
          "internalType": "string",
          "name": "",
          "type": "string"
        }
      ],
      "stateMutability": "view",
      "type": "function"
    },
    {
      "inputs": [
        {
          "internalType": "address",
          "name": "owner",
          "type": "address"
        }
      ],
      "name": "nonces",
      "outputs": [
        {
          "internalType": "uint256",
          "name": "",
          "type": "uint256"
        }
      ],
      "stateMutability": "view",
      "type": "function"
    },
    {
      "inputs": [
        {
          "internalType": "address",
          "name": "owner",
          "type": "address"
        },
        {
          "internalType": "address",
          "name": "spender",
          "type": "address"
        },
        {
          "internalType": "uint256",
          "name": "value",
          "type": "uint256"
        },
        {
          "internalType": "uint256",
          "name": "deadline",
          "type": "uint256"
        },
        {
          "internalType": "uint8",
          "name": "v",
          "type": "uint8"
        },
        {
          "internalType": "bytes32",
          "name": "r",
          "type": "bytes32"
        },
        {
          "internalType": "bytes32",
          "name": "s",
          "type": "bytes32"
        }
      ],
      "name": "permit",
      "outputs": [],
      "stateMutability": "nonpayable",
      "type": "function"
    },
    {
      "inputs": [],
      "name": "symbol",
      "outputs": [
        {
          "internalType": "string",
          "name": "",
          "type": "string"
        }
      ],
      "stateMutability": "view",
      "type": "function"
    },
    {
      "inputs": [],
      "name": "totalSupply",
      "outputs": [
        {
          "internalType": "uint256",
          "name": "",
          "type": "uint256"
        }
      ],
      "stateMutability": "view",
      "type": "function"
    },
    {
      "inputs": [
        {
          "internalType": "address",
          "name": "to",
          "type": "address"
        },
        {
          "internalType": "uint256",
          "name": "amount",
          "type": "uint256"
        }
      ],
      "name": "transfer",
      "outputs": [
        {
          "internalType": "bool",
          "name": "",
          "type": "bool"
        }
      ],
      "stateMutability": "nonpayable",
      "type": "function"
    },
    {
      "inputs": [
        {
          "internalType": "address",
          "name": "from",
          "type": "address"
        },
        {
          "internalType": "address",
          "name": "to",
          "type": "address"
        },
        {
          "internalType": "uint256",
          "name": "amount",
          "type": "uint256"
        }
      ],
      "name": "transferFrom",
      "outputs": [
        {
          "internalType": "bool",
          "name": "",
          "type": "bool"
        }
      ],
      "stateMutability": "nonpayable",
      "type": "function"
    }
  ],
  "bytecode": "0x6101406040523480156200001257600080fd5b506040518060400160405280600981526020017f72616e646f6d4552430000000000000000000000000000000000000000000000815250806040518060400160405280600181526020017f31000000000000000000000000000000000000000000000000000000000000008152506040518060400160405280600981526020017f72616e646f6d45524300000000000000000000000000000000000000000000008152506040518060400160405280600481526020017f724552430000000000000000000000000000000000000000000000000000000081525081600390805190602001906200010492919062000215565b5080600490805190602001906200011d92919062000215565b50505060008280519060200120905060008280519060200120905060007f8b73c3c69bb8fe3d512ecc4cf759cc79239f7b179b0ffacaa9a75d522b39400f90508260e081815250508161010081815250504660a0818152505062000189818484620001d960201b60201c565b608081815250503073ffffffffffffffffffffffffffffffffffffffff1660c08173ffffffffffffffffffffffffffffffffffffffff168152505080610120818152505050505050505062000402565b60008383834630604051602001620001f695949392919062000340565b6040516020818303038152906040528051906020012090509392505050565b8280546200022390620003cc565b90600052602060002090601f01602090048101928262000247576000855562000293565b82601f106200026257805160ff191683800117855562000293565b8280016001018555821562000293579182015b828111156200029257825182559160200191906001019062000275565b5b509050620002a29190620002a6565b5090565b5b80821115620002c1576000816000905550600101620002a7565b5090565b6000819050919050565b620002da81620002c5565b82525050565b6000819050919050565b620002f581620002e0565b82525050565b600073ffffffffffffffffffffffffffffffffffffffff82169050919050565b60006200032882620002fb565b9050919050565b6200033a816200031b565b82525050565b600060a082019050620003576000830188620002cf565b620003666020830187620002cf565b620003756040830186620002cf565b620003846060830185620002ea565b6200039360808301846200032f565b9695505050505050565b7f4e487b7100000000000000000000000000000000000000000000000000000000600052602260045260246000fd5b60006002820490506001821680620003e557607f821691505b60208210811415620003fc57620003fb6200039d565b5b50919050565b60805160a05160c05160e051610100516101205161208c620004526000396000610ef001526000610f3201526000610f1101526000610e4601526000610e9c01526000610ec5015261208c6000f3fe608060405234801561001057600080fd5b50600436106100f55760003560e01c80633950935111610097578063a457c2d711610066578063a457c2d71461028a578063a9059cbb146102ba578063d505accf146102ea578063dd62ed3e14610306576100f5565b806339509351146101dc57806370a082311461020c5780637ecebe001461023c57806395d89b411461026c576100f5565b806318160ddd116100d357806318160ddd1461015257806323b872dd14610170578063313ce567146101a05780633644e515146101be576100f5565b806306fdde03146100fa578063095ea7b3146101185780631249c58b14610148575b600080fd5b610102610336565b60405161010f9190611384565b60405180910390f35b610132600480360381019061012d919061143f565b6103c8565b60405161013f919061149a565b60405180910390f35b6101506103eb565b005b61015a6103ff565b60405161016791906114c4565b60405180910390f35b61018a600480360381019061018591906114df565b610409565b604051610197919061149a565b60405180910390f35b6101a8610438565b6040516101b5919061154e565b60405180910390f35b6101c6610441565b6040516101d39190611582565b60405180910390f35b6101f660048036038101906101f1919061143f565b610450565b604051610203919061149a565b60405180910390f35b6102266004803603810190610221919061159d565b610487565b60405161023391906114c4565b60405180910390f35b6102566004803603810190610251919061159d565b6104cf565b60405161026391906114c4565b60405180910390f35b61027461051f565b6040516102819190611384565b60405180910390f35b6102a4600480360381019061029f919061143f565b6105b1565b6040516102b1919061149a565b60405180910390f35b6102d460048036038101906102cf919061143f565b610628565b6040516102e1919061149a565b60405180910390f35b61030460048036038101906102ff9190611622565b61064b565b005b610320600480360381019061031b91906116c4565b61078d565b60405161032d91906114c4565b60405180910390f35b60606003805461034590611733565b80601f016020809104026020016040519081016040528092919081815260200182805461037190611733565b80156103be5780601f10610393576101008083540402835291602001916103be565b820191906000526020600020905b8154815290600101906020018083116103a157829003601f168201915b5050505050905090565b6000806103d3610814565b90506103e081858561081c565b600191505092915050565b6103fd33678ac7230489e800006109e7565b565b6000600254905090565b600080610414610814565b9050610421858285610b3e565b61042c858585610bca565b60019150509392505050565b60006012905090565b600061044b610e42565b905090565b60008061045b610814565b905061047c81858561046d858961078d565b6104779190611794565b61081c565b600191505092915050565b60008060008373ffffffffffffffffffffffffffffffffffffffff1673ffffffffffffffffffffffffffffffffffffffff168152602001908152602001600020549050919050565b6000610518600560008473ffffffffffffffffffffffffffffffffffffffff1673ffffffffffffffffffffffffffffffffffffffff168152602001908152602001600020610f5c565b9050919050565b60606004805461052e90611733565b80601f016020809104026020016040519081016040528092919081815260200182805461055a90611733565b80156105a75780601f1061057c576101008083540402835291602001916105a7565b820191906000526020600020905b81548152906001019060200180831161058a57829003601f168201915b5050505050905090565b6000806105bc610814565b905060006105ca828661078d565b90508381101561060f576040517f08c379a00000000000000000000000000000000000000000000000000000000081526004016106069061185c565b60405180910390fd5b61061c828686840361081c565b60019250505092915050565b600080610633610814565b9050610640818585610bca565b600191505092915050565b8342111561068e576040517f08c379a0000000000000000000000000000000000000000000000000000000008152600401610685906118c8565b60405180910390fd5b60007f6e71edae12b1b97f4d1f60370fef10105fa2faae0126114a169c64845d6126c98888886106bd8c610f6a565b896040516020016106d3969594939291906118f7565b60405160208183030381529060405280519060200120905060006106f682610fc8565b9050600061070682878787610fe2565b90508973ffffffffffffffffffffffffffffffffffffffff168173ffffffffffffffffffffffffffffffffffffffff1614610776576040517f08c379a000000000000000000000000000000000000000000000000000000000815260040161076d906119a4565b60405180910390fd5b6107818a8a8a61081c565b50505050505050505050565b6000600160008473ffffffffffffffffffffffffffffffffffffffff1673ffffffffffffffffffffffffffffffffffffffff16815260200190815260200160002060008373ffffffffffffffffffffffffffffffffffffffff1673ffffffffffffffffffffffffffffffffffffffff16815260200190815260200160002054905092915050565b600033905090565b600073ffffffffffffffffffffffffffffffffffffffff168373ffffffffffffffffffffffffffffffffffffffff16141561088c576040517f08c379a000000000000000000000000000000000000000000000000000000000815260040161088390611a36565b60405180910390fd5b600073ffffffffffffffffffffffffffffffffffffffff168273ffffffffffffffffffffffffffffffffffffffff1614156108fc576040517f08c379a00000000000000000000000000000000000000000000000000000000081526004016108f390611ac8565b60405180910390fd5b80600160008573ffffffffffffffffffffffffffffffffffffffff1673ffffffffffffffffffffffffffffffffffffffff16815260200190815260200160002060008473ffffffffffffffffffffffffffffffffffffffff1673ffffffffffffffffffffffffffffffffffffffff168152602001908152602001600020819055508173ffffffffffffffffffffffffffffffffffffffff168373ffffffffffffffffffffffffffffffffffffffff167f8c5be1e5ebec7d5bd14f71427d1e84f3dd0314c0f7b2291e5b200ac8c7c3b925836040516109da91906114c4565b60405180910390a3505050565b600073ffffffffffffffffffffffffffffffffffffffff168273ffffffffffffffffffffffffffffffffffffffff161415610a57576040517f08c379a0000000000000000000000000000000000000000000000000000000008152600401610a4e90611b34565b60405180910390fd5b610a636000838361100d565b8060026000828254610a759190611794565b92505081905550806000808473ffffffffffffffffffffffffffffffffffffffff1673ffffffffffffffffffffffffffffffffffffffff168152602001908152602001600020600082825401925050819055508173ffffffffffffffffffffffffffffffffffffffff16600073ffffffffffffffffffffffffffffffffffffffff167fddf252ad1be2c89b69c2b068fc378daa952ba7f163c4a11628f55a4df523b3ef83604051610b2691906114c4565b60405180910390a3610b3a60008383611012565b5050565b6000610b4a848461078d565b90507fffffffffffffffffffffffffffffffffffffffffffffffffffffffffffffffff8114610bc45781811015610bb6576040517f08c379a0000000000000000000000000000000000000000000000000000000008152600401610bad90611ba0565b60405180910390fd5b610bc3848484840361081c565b5b50505050565b600073ffffffffffffffffffffffffffffffffffffffff168373ffffffffffffffffffffffffffffffffffffffff161415610c3a576040517f08c379a0000000000000000000000000000000000000000000000000000000008152600401610c3190611c32565b60405180910390fd5b600073ffffffffffffffffffffffffffffffffffffffff168273ffffffffffffffffffffffffffffffffffffffff161415610caa576040517f08c379a0000000000000000000000000000000000000000000000000000000008152600401610ca190611cc4565b60405180910390fd5b610cb583838361100d565b60008060008573ffffffffffffffffffffffffffffffffffffffff1673ffffffffffffffffffffffffffffffffffffffff16815260200190815260200160002054905081811015610d3b576040517f08c379a0000000000000000000000000000000000000000000000000000000008152600401610d3290611d56565b60405180910390fd5b8181036000808673ffffffffffffffffffffffffffffffffffffffff1673ffffffffffffffffffffffffffffffffffffffff16815260200190815260200160002081905550816000808573ffffffffffffffffffffffffffffffffffffffff1673ffffffffffffffffffffffffffffffffffffffff168152602001908152602001600020600082825401925050819055508273ffffffffffffffffffffffffffffffffffffffff168473ffffffffffffffffffffffffffffffffffffffff167fddf252ad1be2c89b69c2b068fc378daa952ba7f163c4a11628f55a4df523b3ef84604051610e2991906114c4565b60405180910390a3610e3c848484611012565b50505050565b60007f000000000000000000000000000000000000000000000000000000000000000073ffffffffffffffffffffffffffffffffffffffff163073ffffffffffffffffffffffffffffffffffffffff16148015610ebe57507f000000000000000000000000000000000000000000000000000000000000000046145b15610eeb577f00000000000000000000000000000000000000000000000000000000000000009050610f59565b610f567f00000000000000000000000000000000000000000000000000000000000000007f00000000000000000000000000000000000000000000000000000000000000007f0000000000000000000000000000000000000000000000000000000000000000611017565b90505b90565b600081600001549050919050565b600080600560008473ffffffffffffffffffffffffffffffffffffffff1673ffffffffffffffffffffffffffffffffffffffff1681526020019081526020016000209050610fb781610f5c565b9150610fc281611051565b50919050565b6000610fdb610fd5610e42565b83611067565b9050919050565b6000806000610ff38787878761109a565b915091506110008161117d565b8192505050949350505050565b505050565b505050565b60008383834630604051602001611032959493929190611d76565b6040516020818303038152906040528051906020012090509392505050565b6001816000016000828254019250508190555050565b6000828260405160200161107c929190611e41565b60405160208183030381529060405280519060200120905092915050565b6000807f7fffffffffffffffffffffffffffffff5d576e7357a4501ddfe92f46681b20a08360001c11156110d5576000600391509150611174565b6000600187878787604051600081526020016040526040516110fa9493929190611e78565b6020604051602081039080840390855afa15801561111c573d6000803e3d6000fd5b505050602060405103519050600073ffffffffffffffffffffffffffffffffffffffff168173ffffffffffffffffffffffffffffffffffffffff16141561116b57600060019250925050611174565b80600092509250505b94509492505050565b6000600481111561119157611190611ebd565b5b8160048111156111a4576111a3611ebd565b5b14156111af576112e8565b600160048111156111c3576111c2611ebd565b5b8160048111156111d6576111d5611ebd565b5b1415611217576040517f08c379a000000000000000000000000000000000000000000000000000000000815260040161120e90611f38565b60405180910390fd5b6002600481111561122b5761122a611ebd565b5b81600481111561123e5761123d611ebd565b5b141561127f576040517f08c379a000000000000000000000000000000000000000000000000000000000815260040161127690611fa4565b60405180910390fd5b6003600481111561129357611292611ebd565b5b8160048111156112a6576112a5611ebd565b5b14156112e7576040517f08c379a00000000000000000000000000000000000000000000000000000000081526004016112de90612036565b60405180910390fd5b5b50565b600081519050919050565b600082825260208201905092915050565b60005b8381101561132557808201518184015260208101905061130a565b83811115611334576000848401525b50505050565b6000601f19601f8301169050919050565b6000611356826112eb565b61136081856112f6565b9350611370818560208601611307565b6113798161133a565b840191505092915050565b6000602082019050818103600083015261139e818461134b565b905092915050565b600080fd5b600073ffffffffffffffffffffffffffffffffffffffff82169050919050565b60006113d6826113ab565b9050919050565b6113e6816113cb565b81146113f157600080fd5b50565b600081359050611403816113dd565b92915050565b6000819050919050565b61141c81611409565b811461142757600080fd5b50565b60008135905061143981611413565b92915050565b60008060408385031215611456576114556113a6565b5b6000611464858286016113f4565b92505060206114758582860161142a565b9150509250929050565b60008115159050919050565b6114948161147f565b82525050565b60006020820190506114af600083018461148b565b92915050565b6114be81611409565b82525050565b60006020820190506114d960008301846114b5565b92915050565b6000806000606084860312156114f8576114f76113a6565b5b6000611506868287016113f4565b9350506020611517868287016113f4565b92505060406115288682870161142a565b9150509250925092565b600060ff82169050919050565b61154881611532565b82525050565b6000602082019050611563600083018461153f565b92915050565b6000819050919050565b61157c81611569565b82525050565b60006020820190506115976000830184611573565b92915050565b6000602082840312156115b3576115b26113a6565b5b60006115c1848285016113f4565b91505092915050565b6115d381611532565b81146115de57600080fd5b50565b6000813590506115f0816115ca565b92915050565b6115ff81611569565b811461160a57600080fd5b50565b60008135905061161c816115f6565b92915050565b600080600080600080600060e0888a031215611641576116406113a6565b5b600061164f8a828b016113f4565b97505060206116608a828b016113f4565b96505060406116718a828b0161142a565b95505060606116828a828b0161142a565b94505060806116938a828b016115e1565b93505060a06116a48a828b0161160d565b92505060c06116b58a828b0161160d565b91505092959891949750929550565b600080604083850312156116db576116da6113a6565b5b60006116e9858286016113f4565b92505060206116fa858286016113f4565b9150509250929050565b7f4e487b7100000000000000000000000000000000000000000000000000000000600052602260045260246000fd5b6000600282049050600182168061174b57607f821691505b6020821081141561175f5761175e611704565b5b50919050565b7f4e487b7100000000000000000000000000000000000000000000000000000000600052601160045260246000fd5b600061179f82611409565b91506117aa83611409565b9250827fffffffffffffffffffffffffffffffffffffffffffffffffffffffffffffffff038211156117df576117de611765565b5b828201905092915050565b7f45524332303a2064656372656173656420616c6c6f77616e63652062656c6f7760008201527f207a65726f000000000000000000000000000000000000000000000000000000602082015250565b60006118466025836112f6565b9150611851826117ea565b604082019050919050565b6000602082019050818103600083015261187581611839565b9050919050565b7f45524332305065726d69743a206578706972656420646561646c696e65000000600082015250565b60006118b2601d836112f6565b91506118bd8261187c565b602082019050919050565b600060208201905081810360008301526118e1816118a5565b9050919050565b6118f1816113cb565b82525050565b600060c08201905061190c6000830189611573565b61191960208301886118e8565b61192660408301876118e8565b61193360608301866114b5565b61194060808301856114b5565b61194d60a08301846114b5565b979650505050505050565b7f45524332305065726d69743a20696e76616c6964207369676e61747572650000600082015250565b600061198e601e836112f6565b915061199982611958565b602082019050919050565b600060208201905081810360008301526119bd81611981565b9050919050565b7f45524332303a20617070726f76652066726f6d20746865207a65726f2061646460008201527f7265737300000000000000000000000000000000000000000000000000000000602082015250565b6000611a206024836112f6565b9150611a2b826119c4565b604082019050919050565b60006020820190508181036000830152611a4f81611a13565b9050919050565b7f45524332303a20617070726f766520746f20746865207a65726f20616464726560008201527f7373000000000000000000000000000000000000000000000000000000000000602082015250565b6000611ab26022836112f6565b9150611abd82611a56565b604082019050919050565b60006020820190508181036000830152611ae181611aa5565b9050919050565b7f45524332303a206d696e7420746f20746865207a65726f206164647265737300600082015250565b6000611b1e601f836112f6565b9150611b2982611ae8565b602082019050919050565b60006020820190508181036000830152611b4d81611b11565b9050919050565b7f45524332303a20696e73756666696369656e7420616c6c6f77616e6365000000600082015250565b6000611b8a601d836112f6565b9150611b9582611b54565b602082019050919050565b60006020820190508181036000830152611bb981611b7d565b9050919050565b7f45524332303a207472616e736665722066726f6d20746865207a65726f20616460008201527f6472657373000000000000000000000000000000000000000000000000000000602082015250565b6000611c1c6025836112f6565b9150611c2782611bc0565b604082019050919050565b60006020820190508181036000830152611c4b81611c0f565b9050919050565b7f45524332303a207472616e7366657220746f20746865207a65726f206164647260008201527f6573730000000000000000000000000000000000000000000000000000000000602082015250565b6000611cae6023836112f6565b9150611cb982611c52565b604082019050919050565b60006020820190508181036000830152611cdd81611ca1565b9050919050565b7f45524332303a207472616e7366657220616d6f756e742065786365656473206260008201527f616c616e63650000000000000000000000000000000000000000000000000000602082015250565b6000611d406026836112f6565b9150611d4b82611ce4565b604082019050919050565b60006020820190508181036000830152611d6f81611d33565b9050919050565b600060a082019050611d8b6000830188611573565b611d986020830187611573565b611da56040830186611573565b611db260608301856114b5565b611dbf60808301846118e8565b9695505050505050565b600081905092915050565b7f1901000000000000000000000000000000000000000000000000000000000000600082015250565b6000611e0a600283611dc9565b9150611e1582611dd4565b600282019050919050565b6000819050919050565b611e3b611e3682611569565b611e20565b82525050565b6000611e4c82611dfd565b9150611e588285611e2a565b602082019150611e688284611e2a565b6020820191508190509392505050565b6000608082019050611e8d6000830187611573565b611e9a602083018661153f565b611ea76040830185611573565b611eb46060830184611573565b95945050505050565b7f4e487b7100000000000000000000000000000000000000000000000000000000600052602160045260246000fd5b7f45434453413a20696e76616c6964207369676e61747572650000000000000000600082015250565b6000611f226018836112f6565b9150611f2d82611eec565b602082019050919050565b60006020820190508181036000830152611f5181611f15565b9050919050565b7f45434453413a20696e76616c6964207369676e6174757265206c656e67746800600082015250565b6000611f8e601f836112f6565b9150611f9982611f58565b602082019050919050565b60006020820190508181036000830152611fbd81611f81565b9050919050565b7f45434453413a20696e76616c6964207369676e6174757265202773272076616c60008201527f7565000000000000000000000000000000000000000000000000000000000000602082015250565b60006120206022836112f6565b915061202b82611fc4565b604082019050919050565b6000602082019050818103600083015261204f81612013565b905091905056fea264697066735822122025eb6ed4fc79f5726992726005ac121866944fb6a78e378d421076318700746d64736f6c63430008090033",
  "linkReferences": {},
  "deployedLinkReferences": {}
}